{
  "contractName": "Faucet",
  "abi": [
    {
      "inputs": [],
      "name": "numbOfFunders",
      "outputs": [
        {
          "internalType": "uint256",
          "name": "",
          "type": "uint256"
        }
      ],
      "stateMutability": "view",
      "type": "function",
      "constant": true
    },
    {
      "inputs": [],
      "name": "owner",
      "outputs": [
        {
          "internalType": "address",
          "name": "",
          "type": "address"
        }
      ],
      "stateMutability": "view",
      "type": "function",
      "constant": true
    },
    {
      "stateMutability": "payable",
      "type": "receive",
      "payable": true
    },
    {
      "inputs": [],
      "name": "emitLog",
      "outputs": [
        {
          "internalType": "bytes32",
          "name": "",
          "type": "bytes32"
        }
      ],
      "stateMutability": "pure",
      "type": "function",
      "constant": true
    },
    {
      "inputs": [],
      "name": "addFunds",
      "outputs": [],
      "stateMutability": "payable",
      "type": "function",
      "payable": true
    },
    {
      "inputs": [
        {
          "internalType": "uint256",
          "name": "amount",
          "type": "uint256"
        }
      ],
      "name": "withdraw",
      "outputs": [],
      "stateMutability": "nonpayable",
      "type": "function"
    },
    {
      "inputs": [],
      "name": "getAllFunders",
      "outputs": [
        {
          "internalType": "address[]",
          "name": "",
          "type": "address[]"
        }
      ],
      "stateMutability": "view",
      "type": "function",
      "constant": true
    },
    {
      "inputs": [
        {
          "internalType": "uint8",
          "name": "index",
          "type": "uint8"
        }
      ],
      "name": "getFunderAtIndex",
      "outputs": [
        {
          "internalType": "address",
          "name": "",
          "type": "address"
        }
      ],
      "stateMutability": "view",
      "type": "function",
      "constant": true
    }
  ],
  "bytecode": "0x608060405234801561001057600080fd5b50336000806101000a81548173ffffffffffffffffffffffffffffffffffffffff021916908373ffffffffffffffffffffffffffffffffffffffff1602179055506108b4806100606000396000f3fe6080604052600436106100745760003560e01c80636fbbb55d1161004e5780636fbbb55d146101115780638da5cb5b1461013c578063a26759cb14610167578063f42c13bf146101715761007b565b80630a93cf331461008057806318901af0146100bd5780632e1a7d4d146100e85761007b565b3661007b57005b600080fd5b34801561008c57600080fd5b506100a760048036038101906100a2919061055b565b61019c565b6040516100b49190610659565b60405180910390f35b3480156100c957600080fd5b506100d26101dc565b6040516100df91906106d1565b60405180910390f35b3480156100f457600080fd5b5061010f600480360381019061010a9190610532565b6101e2565b005b34801561011d57600080fd5b50610126610279565b6040516101339190610674565b60405180910390f35b34801561014857600080fd5b506101516103bf565b60405161015e9190610659565b60405180910390f35b61016f6103e3565b005b34801561017d57600080fd5b50610186610503565b6040516101939190610696565b60405180910390f35b6000600360008360ff16815260200190815260200160002060009054906101000a900473ffffffffffffffffffffffffffffffffffffffff169050919050565b60015481565b8067016345785d8a000081111561022e576040517f08c379a0000000000000000000000000000000000000000000000000000000008152600401610225906106b1565b60405180910390fd5b3373ffffffffffffffffffffffffffffffffffffffff166108fc839081150290604051600060405180830381858888f19350505050158015610274573d6000803e3d6000fd5b505050565b6060600060015467ffffffffffffffff8111156102bf577f4e487b7100000000000000000000000000000000000000000000000000000000600052604160045260246000fd5b6040519080825280602002602001820160405280156102ed5781602001602082028036833780820191505090505b50905060005b6001548110156103b7576003600082815260200190815260200160002060009054906101000a900473ffffffffffffffffffffffffffffffffffffffff1682828151811061036a577f4e487b7100000000000000000000000000000000000000000000000000000000600052603260045260246000fd5b602002602001019073ffffffffffffffffffffffffffffffffffffffff16908173ffffffffffffffffffffffffffffffffffffffff168152505080806103af90610789565b9150506102f3565b508091505090565b60008054906101000a900473ffffffffffffffffffffffffffffffffffffffff1681565b6000339050600260008273ffffffffffffffffffffffffffffffffffffffff1673ffffffffffffffffffffffffffffffffffffffff16815260200190815260200160002060009054906101000a900460ff166105005760006001600081548092919061044e90610789565b9190505590506001600260008473ffffffffffffffffffffffffffffffffffffffff1673ffffffffffffffffffffffffffffffffffffffff16815260200190815260200160002060006101000a81548160ff021916908315150217905550816003600083815260200190815260200160002060006101000a81548173ffffffffffffffffffffffffffffffffffffffff021916908373ffffffffffffffffffffffffffffffffffffffff160217905550505b50565b600090565b60008135905061051781610850565b92915050565b60008135905061052c81610867565b92915050565b60006020828403121561054457600080fd5b600061055284828501610508565b91505092915050565b60006020828403121561056d57600080fd5b600061057b8482850161051d565b91505092915050565b6000610590838361059c565b60208301905092915050565b6105a581610736565b82525050565b6105b481610736565b82525050565b60006105c5826106fc565b6105cf8185610714565b93506105da836106ec565b8060005b8381101561060b5781516105f28882610584565b97506105fd83610707565b9250506001810190506105de565b5085935050505092915050565b61062181610748565b82525050565b6000610634602183610725565b915061063f82610801565b604082019050919050565b61065381610772565b82525050565b600060208201905061066e60008301846105ab565b92915050565b6000602082019050818103600083015261068e81846105ba565b905092915050565b60006020820190506106ab6000830184610618565b92915050565b600060208201905081810360008301526106ca81610627565b9050919050565b60006020820190506106e6600083018461064a565b92915050565b6000819050602082019050919050565b600081519050919050565b6000602082019050919050565b600082825260208201905092915050565b600082825260208201905092915050565b600061074182610752565b9050919050565b6000819050919050565b600073ffffffffffffffffffffffffffffffffffffffff82169050919050565b6000819050919050565b600060ff82169050919050565b600061079482610772565b91507fffffffffffffffffffffffffffffffffffffffffffffffffffffffffffffffff8214156107c7576107c66107d2565b5b600182019050919050565b7f4e487b7100000000000000000000000000000000000000000000000000000000600052601160045260246000fd5b7f43616e6e6f74207769746864726177206d6f7265207468616e20302e3120455460008201527f4800000000000000000000000000000000000000000000000000000000000000602082015250565b61085981610772565b811461086457600080fd5b50565b6108708161077c565b811461087b57600080fd5b5056fea2646970667358221220e1ac3e803f0dd073bc0f011e7022659d1e2e2a081cc345a242a6cf862bb6f8c764736f6c63430008040033",
  "immutableReferences": {},
  "source": "// SPDX-License-Identifier: MIT\npragma solidity >=0.4.22 <0.9.0;\n\nimport \"./Owned.sol\";\nimport \"./Logger.sol\";\nimport \"./IFaucet.sol\";\n\ncontract Faucet is Owned, Logger, IFaucet {\n    uint public numbOfFunders;\n    mapping(address => bool) private funders;\n    mapping(uint => address) private lutFunders;\n\n    modifier limitWithdraw(uint withdrawAmount) {\n        require(withdrawAmount <= 100000000000000000, \"Cannot withdraw more than 0.1 ETH\");\n        _;\n    }\n\n    receive() external payable {}\n\n    function emitLog() public pure override returns(bytes32) {}\n\n    function addFunds() external override payable {\n        address funder = msg.sender;\n\n        if (!funders[funder]) {\n            uint index = numbOfFunders++;\n            funders[funder] = true;\n            lutFunders[index] = funder;\n        }\n    }\n\n    function withdraw(uint amount) external override limitWithdraw(amount) {\n        payable(msg.sender).transfer(amount);\n    }\n\n    function getAllFunders() external view returns(address[] memory) {\n        address[] memory _funders = new address[](numbOfFunders);\n        \n        for (uint i = 0; i < numbOfFunders; i++) {\n            _funders[i] = lutFunders[i];\n        }\n\n        return _funders;\n    }\n\n    function getFunderAtIndex(uint8 index) public view returns(address) {\n        return lutFunders[index];\n    }\n}",
  "sourcePath": "/Users/kaniel_outis/Projects/blockchain/faucet/contracts/Faucet.sol",
  "compiler": {
    "name": "solc",
    "version": "0.8.4+commit.c7e474f2.Emscripten.clang"
  },
  "schemaVersion": "3.4.3",
  "updatedAt": "2021-10-27T12:32:36.606Z",
  "networkType": "ethereum",
  "devdoc": {
    "kind": "dev",
    "methods": {},
    "version": 1
  },
  "userdoc": {
    "kind": "user",
    "methods": {},
    "version": 1
  }
}